:020000040800F2
:10000000300D0020E5010008BD3D0008D31F0008A9
:10001000B93D0008C10800080B44000800000000BA
:100020000000000000000000000000005D3F00082C
:10003000C5080008000000008D02000849400008C3
:10004000FF010008FF010008FF010008FF01000890
:10005000FF010008FF010008FF010008FF01000880
:10006000FF010008FF010008FF010008FF01000870
:10007000FF010008FF010008FF010008FF01000860
:10008000FF010008FF010008FF010008FF01000850
:10009000FF010008FF010008FF010008FF01000840
:1000A000FF010008FF010008FF010008FF01000830
:1000B000FF010008FF010008FF010008FF01000820
:1000C000FF010008FF010008FF010008FF01000810
:1000D000FF010008B5410008FF010008FF0100080A
:1000E000FF010008FF010008FF01000800F002F80E
:1000F00000F068F80AA090E8000C82448344AAF15A
:100100000107DA4501D100F05DF8AFF2090EBAE857
:100110000F0013F0010F18BFFB1A43F0010318473B
:10012000005F0000205F00000A444FF0000C10F850
:10013000013B13F0070408BF10F8014B1D1108BF65
:1001400010F8015B641E05D010F8016B641E01F805
:10015000016BF9D113F0080F1EBF10F8014BAD1C55
:100160000C1B09D16D1E58BF01F801CBFAD505E073
:1001700014F8016B01F8016B6D1EF9D59142D6D3CD
:10018000704700000023002400250026103A28BFF5
:1001900078C1FBD8520728BF30C148BF0B607047F9
:1001A000702900F04D81642900F0DA80782900F090
:1001B0003A81732900F0EE82002070471FB51FBD01
:1001C00010B510BD00F04AFB1146FFF7F7FF04F031
:1001D00035F900F068FB03B4FFF7F2FF03BC04F04D
:1001E0001DF900000948804709480047FEE7FEE77F
:1001F000FEE7FEE7FEE7FEE7FEE7FEE7FEE7FEE7D7
:1002000004480549054A064B704700007540000840
:10021000ED00000830070020300D002030090020DC
:100220003009002072B62C482C49026841EA0201CC
:1002300001602B484FF0010101602A4841680160CC
:1002400001688A884FF0100342EA03028A80D1F8DD
:1002500000C00CF1240CBCE8FF008CF309884FF0BF
:10026000020C8CF31488AE4662B63047EFF3108070
:1002700072B67047EFF3108062B6704780F3108853
:10028000704719484FF0805101607047EFF3108CB0
:1002900072B6164A126822B12DE900509047BDE8A7
:1002A0000050EFF3098020E9F01F0E4D4FF01008C9
:1002B0002E683060B78827EA0807B780686828602A
:1002C000878847EA080787800168B1E8F01F81F353
:1002D00009888CF31088704720ED00E00000FFFFD4
:1002E000780100204001002004ED00E07C010020A6
:1002F000704700000FB4044910B503AA029800F03B
:100300004DFA10BC5DF814FB1400002070B50C46CB
:100310000546012A05D02878800600D5EA69002321
:1003200002E0012305E05B1C934202D2E05C00285E
:10033000F9D1A869E618C01AA861286A1844286289
:100340002846AFF3008004E0D5E9012114F8010B41
:100350009047B442F8D32846AFF3008070BD000048
:100360002DE9F0410646002410687529314616A58E
:1003700010D0AFF30080002802DA404213A507E056
:1003800031688A0701D512A502E0490704D511A5F5
:10039000012401E0AFF3008000210A2206F12407C6
:1003A00009E0B0FBF2FCB0FBF2F302FB1C003030C2
:1003B00078541846491C0028F3D123462A46304673
:1003C000BDE8F04100F07BB9000000002D00000006
:1003D0002B00000020000000F0B40D460188090544
:1003E00002D51B4C7C4402E0194C7C440E340021A5
:1003F00000F1240305E002F00F061209A65D5E5429
:10040000491C002AF7D102780023120704D5702D69
:1004100006D009B1022311342246F0BC00F04FB9D6
:1004200001231034F8E770B504460D4621461068E4
:10043000AFF30080024629462046BDE87040CBE776
:100440000368126843F0200303600823C361C3E715
:10045000B85B00002DE9F05F894604464FF0000AC2
:10046000DFF824B1FB44C0F820A02046E1688847AB
:1004700000287DD0252806D0D4E901219047206AA4
:10048000401C2062F1E700255F462046E16888476E
:100490002028064607DB312E05D2B81910F8200CAB
:1004A00008B10543F1E7A80701D525F00405C4F814
:1004B0001CA00027C4F818A02A2E09D0304603F04B
:1004C000A6FF38B304EB8708303EC8F8186019E07F
:1004D00059F8041B204604EB87029161E1688847C4
:1004E000012F064618D1E069002820DA25F0200502
:1004F0001DE0D8F8180000EB800006EB4000303813
:10050000C8F818002046E1688847064603F07FFFD8
:100510000028EED1012F0AD02E2E08D12046E16806
:1005200088477F1C0646022F45F02005C4DBA069E2
:10053000002803DA404245F00105A061E80701D038
:1005400025F01005A6B1A6F14100192802D82036E1
:1005500045F400654A463146204625604D46FFF782
:100560001FFE60B1012807D0ED1D25F0070000E057
:1005700007E000F1080978E705F1040975E730465E
:100580007AE7206ABDE8F09F605B0000032A40F232
:10059000308010F0030C00F0158011F8013BBCF125
:1005A000020F624498BF11F801CB00F8013B38BF3D
:1005B00011F8013BA2F1040298BF00F801CB38BF4B
:1005C00000F8013B11F0030300F0FA80083AC0F094
:1005D000088051F8043B083A51F804CBA0E8081011
:1005E000F5E7121D5CBF51F8043B40F8043BAFF344
:1005F0000080D20724BF11F8013B11F801CB48BF9E
:1006000011F8012B24BF00F8013B00F801CB48BFD3
:1006100000F8012B704702F0FF0343EA032242EA8D
:10062000024200F002B84FF000020429C0F012802C
:1006300010F0030C00F01B80CCF1040CBCF1020F95
:1006400018BF00F8012BA8BF20F8022BA1EB0C016A
:1006500000F00DB85FEAC17C24BF00F8012B00F860
:10066000012B48BF00F8012B70474FF0000200B586
:10067000134694469646203922BFA0E80C50A0E8C5
:100680000C50B1F12001BFF4F7AF090728BFA0E873
:100690000C5048BF0CC05DF804EB890028BF40F83F
:1006A000042B08BF704748BF20F8022B11F0804F81
:1006B00018BF00F8012B70477047704770472DE94D
:1006C000F0470D4699469246044600F12408016819
:1006D000880604D5E06921F01001216000E00120C6
:1006E000A84201DD471B00E00027A1697A1902EB4F
:1006F0000900081AA0612078C00602D42046AFF392
:100700000080002608E0D4E901211AF8060090478D
:10071000206A401C761C20624E45F4DB2078C0061F
:100720000AD52046AFF3008006E0D4E9012130204D
:100730009047206A401C2062381EA7F10107F4DCB4
:1007400007E0D4E9012118F805009047206A401C11
:100750002062281EA5F10105F3DC2046AFF30080DE
:100760002078000602D50220BDE8F0870120FBE7D3
:1007700010B5436913B1AFF3008001E0FFF7C6FD88
:10078000012010BD127800F124010A7000224A7085
:100790000122EDE711684FF0FF32E9E7074B70B532
:1007A0000D467B4400F043F80446284600F052F81A
:1007B00010B14FF0FF3070BD204670BD7B3C000093
:1007C00010B5203AC0F00B80B1E81850203AA0E8EC
:1007D0001850B1E81850A0E81850BFF4F5AF5FEA20
:1007E000027C24BFB1E81850A0E8185044BF18C9D3
:1007F00018C0BDE810405FEA827C24BF51F8043B7A
:1008000040F8043B08BF7047D20728BF31F8023BCD
:1008100048BF11F8012B28BF20F8023B48BF00F861
:10082000012B704701694A1C02610878704700B5C6
:100830008FB0CDE901310021059105497944CDE919
:10084000031011466846FFF705FE0FB000BD00001B
:10085000E5FFFFFF007B00F080007047754600F069
:100860002BF8AE4605006946534620F00700854642
:1008700018B020B5FFF7C4FCBDE820404FF00006DB
:100880004FF000074FF000084FF0000B21F0070178
:10089000AC46ACE8C009ACE8C009ACE8C009ACE8BB
:1008A000C0098D46704710B50446AFF3008020465E
:1008B000BDE81040FFF78FBC00487047D00600200D
:1008C00000BFFEE77047000070B500244FF4807150
:1008D000224801F07DFF05461DB921A0FFF70AFD62
:1008E00004E024A0FFF706FD012070BD04211B4891
:1008F00001F035FF044624B924A0FFF7FBFC0120DA
:10090000F3E728A0FFF7F6FC4FF44F70206029A012
:100910002168FFF7EFFC2146104801F03FFF054634
:1009200065B928A0FFF7E6FC0021092001F06AFD67
:1009300005468DB127A0FFF7DDFC0DE02CA0FFF7E9
:10094000D9FC0121092001F05DFD054615B121A06A
:10095000FFF7D0FC0120C8E70020C6E7EC0100202B
:100960006D656D706F6F6C20696E6974206F6B219F
:10097000200D0A006D656D706F6F6C20696E697473
:10098000206661696C656421200D0A006D656D202B
:10099000616C6C6F63206661696C656421200D0A6F
:1009A000000000006D656D20616C6C6F63206F6BE3
:1009B000200D0A002A705F6E756D203D2025642091
:1009C0000D0A00006D656D2066726565206F6B21F4
:1009D0000D0A000053657420496E737065637420BE
:1009E00053746174757320457272200D0A00000003
:1009F0006D656D2066726565206661696C65642150
:100A0000200D0A0070B50025012114A0FFF772FC2B
:100A10006423042201211A4801F062FB0446012CE0
:100A20000ED1214617A0FFF765FC0021012001F03F
:100A3000E9FC0546002D0FD01BA0FFF75BFC0BE087
:100A400020A0FFF757FC0121084601F0DBFC05461A
:100A500015B115A0FFF74EFC70BD00004578616D23
:100A6000706C655F4576656E74207761697420658A
:100A700076656E742030782578202E200D0A0000CF
:100A8000EC0200204578616D706C655F4576656E9F
:100A9000742C72656164206576656E74203A3078D6
:100AA0002578202E200D0A0053657420496E73703E
:100AB00065637420537461747573204572722E20BF
:100AC0000D0A00004578616D706C655F4576656E56
:100AD000742C72656164206576656E742074696D2E
:100AE000656F75742E200D0A000000002DE9F04797
:100AF0004FF0000801F07EFA8146B9F1000F03D0F3
:100B0000494622A0FFF7F6FB03F050F904460D46D4
:100B100000231A4663406A40134303D0214623A0B2
:100B2000FFF7E8FBC82002F005FF03F03FF9064697
:100B30000F460022134672407B401A4303D03146D1
:100B400021A0FFF7D7FB311B67EB0500C83970F117
:100B500000000DD30021052001F054FC8046B8F1BF
:100B6000000F02D022A0FFF7C5FB0020BDE8F087F0
:100B70000121052001F046FC8046B8F1000F02D0AB
:100B80001BA0FFF7B7FB0120F0E700004C4F535FBD
:100B90004379636C655065725469636B4765742073
:100BA0003D202564202E0D0A000000004C4F535FAD
:100BB0005469636B436F756E74476574203D2025DF
:100BC00064202E0D0A0000004C4F535F5469636B84
:100BD000436F756E74476574206166746572206436
:100BE000656C6179203D202564202E0D0A000000EF
:100BF00053657420496E7370656374205374617417
:100C0000757320457272202E0D0A000010B58AB04F
:100C100000241E4802900920ADF80C004FF43470F7
:100C200005901BA0069002F07FFF02A909A802F020
:100C300073FD044634B1214618A0FFF75BFB204644
:100C40000AB010BD1E48029002A908A802F064FD77
:100C500004462CB121461BA0FFF74CFB2046EFE7D2
:100C600018200023204A0521009020A002F0E4F87B
:100C700004461CB121461FA0FFF73CFB26A0FFF74E
:100C800039FB03F02BF80020DAE700002D5F0008A5
:100C900073656E645175657565000000637265610A
:100CA0007465207461736B31206661696C656421C1
:100CB0002C6572726F723A2578200D0A00000000D0
:100CC000315E0008637265617465207461736B3214
:100CD000206661696C6564212C6572726F723A25B9
:100CE00078200D0A000000001C0000207175657559
:100CF00065000000637265617465207175657565D6
:100D0000206661696C757265212C6572726F723A2A
:100D10002578200D0A0000006372656174652074F7
:100D20006865207175657565207375636365737398
:100D300021200D0A0000000010B58CB0214801F000
:100D400097FE02F0F1FE182106A8FFF78EFC1E4860
:100D500006901EA00A904FF4347009900520ADF85B
:100D60001C0006A91C4802F0D7FC04462CB11BA0AD
:100D7000FFF7C0FA01200CB010BD18216846FFF73C
:100D800074FC1D4800901DA004904FF43470039033
:100D90000420ADF8040069461B4802F0BDFC04467F
:100DA00024B11AA0FFF7A6FA0120E4E702F096FFAB
:100DB0004FF4967002F0BEFD0248006801F0AAFEF2
:100DC0000020D8E734000020290E00084D75746516
:100DD0007854736B31000000380000207461736B2D
:100DE0003120637265617465206661696C65642099
:100DF0002E200D0A00000000710F00084D7574656B
:100E00007854736B320000003C0000207461736BF7
:100E10003220637265617465206661696C65642067
:100E20002E200D0A0000000010B519A0FFF762FA8D
:100E30000A212248006801F0C1FE04463CB920A006
:100E4000FFF758FA1D48006801F07EFF10BD2448E6
:100E500084421BD123A0FFF74DFA4FF0FF31174812
:100E6000006801F0ABFE044684B92CA0FFF742FAFB
:100E70001248006801F068FF0021042001F0C2FA66
:100E8000044614B133A0FFF735FADFE700BFDDE712
:100E90007461736B312074727920746F206765748C
:100EA000206D757465782C2077616974203130204D
:100EB0005469636B2E200D0A0000000034000020EE
:100EC0007461736B3120676574206D75746578206B
:100ED000675F546573746D757830312E200D0A008C
:100EE000071D00027461736B312074696D656F7545
:100EF0007420616E642074727920746F2067657449
:100F000020206D757465782C207761697420666F78
:100F100072657665722E200D0A0000007461736B95
:100F200031207761697420666F72657665722C670F
:100F30006F74206D7574657820675F546573746D88
:100F40007578303120737563636573732E200D0AD5
:100F50000000000053657420496E7370656374204F
:100F600053746174757320457272200D0A0000007D
:100F700010B50FA0FFF7BEF94FF0FF31174800681A
:100F800001F01CFE04461CB115A0FFF7B3F910BD1B
:100F90001BA0FFF7AFF9642002F0CCFC26A0FFF7FE
:100FA000A9F90E48006801F0CFFE00BFEFE700008E
:100FB0007461736B322074727920746F206765746A
:100FC000206D757465782C207761697420666F7266
:100FD000657665722E200D0A0000000034000020A6
:100FE0007461736B32204C4F535F4D757850656E52
:100FF00064206661696C6564202E200D0A00000083
:101000007461736B3220676574206D757465782028
:10101000675F546573746D7578303120616E64203C
:1010200073757370656E6420313030205469636B62
:101030002E200D0A000000007461736B322072656F
:1010400073756D656420616E6420706F73742074B5
:10105000686520675F546573746D75783031200D55
:101060000A00000010B518A0FFF744F90A2125482E
:10107000006802F093F8044624B92248006802F0A0
:101080004BF910BD204884421CD12048FFF732F9AB
:101090004FF0FF311B48006802F080F80446002C36
:1010A00010D11BA0FFF726F91648006802F034F9AA
:1010B0000021032001F0A6F9044614B124A0FFF793
:1010C00019F9DEE700BFDCE74578616D706C655F9C
:1010D00053656D5461736B31207472792067657448
:1010E0002073656D20675F757353656D4944202CCF
:1010F00074696D656F7574203130207469636B732A
:101100002E0D0A004800002007070002DC5F0008DF
:101110004578616D706C655F53656D5461736B31BB
:1011200020776169745F666F726576657220616EA3
:101130006420676F742073656D20675F75735365F6
:101140006D494420737563636573732E0D0A000047
:1011500053657420496E73706563742053746174B1
:10116000757320457272200D0A00000010B50CA0A6
:10117000FFF7C0F84FF0FF311748006802F00EF893
:10118000044614B915A0FFF7B5F8142002F0D2FBFD
:1011900022A0FFF7AFF81048006802F0BDF810BDBC
:1011A0004578616D706C655F53656D5461736B322A
:1011B00020747279206765742073656D20675F7590
:1011C0007353656D4944207761697420666F726559
:1011D0007665722E0D0A0000480000204578616D8A
:1011E000706C655F53656D5461736B322067657415
:1011F0002073656D20675F757353656D4944206189
:101200006E64207468656E2064656C61792032308C
:101210007469636B73202E0D0A0000004578616DC0
:10122000706C655F53656D5461736B3220706F73C2
:10123000742073656D20675F757353656D49442035
:101240002E0D0A0010B58CB000242849002001F0B2
:101250004BFF02F069FC182106A8FFF706FA2448A4
:10126000069024A00A904FF4347009900520ADF840
:101270001C0006A9224802F04FFA04462CB121A016
:10128000FFF738F801200CB010BD18216846FFF7B1
:10129000ECF92248009022A004904FF4347003909F
:1012A0000420ADF804006946204802F035FA0446EF
:1012B00064B11FA0FFF71EF81148006802F078FB28
:1012C00010B121A0FFF716F80120DCE702F006FDBF
:1012D0000648006802F020F80446282002F02AFBA5
:1012E0000248006801F00AFF2046CCE748000020D1
:1012F000651000084D7574657854736B31000000FB
:10130000400000207461736B312063726561746505
:10131000206661696C6564202E0D0A006D1100085D
:101320004D7574657854736B3200000044000020E2
:101330007461736B322063726561746520666169E4
:101340006C6564202E0D0A007461736B3120646536
:101350006C657465206661696C6564202E0D0A00F9
:1013600010B586B0214800F085FE04462CB120A0BF
:10137000FEF7C0FF012006B010BD18216846FFF738
:1013800074F92148009021A004904FF43470039028
:101390000520ADF8040069461F4802F0BDF9044677
:1013A00024B11EA0FEF7A6FF0120E4E721A0FEF76E
:1013B000A1FF01210D4800F019FF044624B127A028
:1013C000FEF798FF0120D6E70848016829A0FEF73C
:1013D00091FF06480068C143044800F037FE034807
:1013E000016824A0FEF786FF0020C4E7EC0200207D
:1013F000696E6974206576656E74206661696C65D6
:1014000064202E0D0A000000050A00084576656E6E
:101410007454736B31000000180000207461736B0A
:1014200020637265617465206661696C6564202E55
:101430000D0A00004578616D706C655F5461736BD7
:10144000456E7472795F4576656E74207772697443
:1014500065206576656E74202E0D0A006576656ED2
:1014600074207772697465206661696C6564202EEA
:101470000D0A00004576656E744D61736B3A256404
:10148000200D0A002DE9F0410024032630273246C2
:101490003946254801F0A8FA05462DB123A0FEF7EC
:1014A00029FF0120BDE8F08126A0FEF723FF1E489A
:1014B00001F014FA044624B928A0FEF71BFF01200E
:1014C000F0E72DA0FEF716FF4FF44F70206030A01C
:1014D0002168FEF70FFF2146134801F023FA30A0E0
:1014E0002168FEF707FF21460F4801F029FA05465B
:1014F00065B934A0FEF7FEFE0021082000F082FF4F
:1015000005467DB135A0FEF7F5FE0BE03AA0FEF7EB
:10151000F1FE0121082000F075FF054615B12FA04E
:10152000FEF7E8FE0020BDE7F80200204D656D20C3
:10153000626F7820696E6974206661696C656420E9
:101540002E0D0A004D656D20626F7820696E6974FA
:10155000206F6B21202E0D0A000000004D656D20CC
:10156000626F7820616C6C6F63206661696C656482
:1015700021202E0D0A0000004D656D20626F78203D
:10158000616C6C6F63206F6B202E0D0A00000000F1
:101590002A705F6E756D203D202564202E0D0A0097
:1015A000636C6561722064617461206F6B200D0A49
:1015B000202A705F6E756D203D202564202E0D0A57
:1015C000000000004D656D20626F782066726565D1
:1015D000206F6B21202E0D0A00000000536574203F
:1015E000496E73706563742053746174757320451C
:1015F0007272202E0D0A00004D656D20626F7820FA
:1016000066726565206661696C656421202E0D0A2D
:101610000000000010B500241DA0FEF76BFE0520A1
:1016200002F088F9044624B11FA0FEF763FE0120F2
:1016300010BD23A0FEF75EFE2948006802F0DCFA28
:1016400004466CB127A0FEF755FE0121002000F0F2
:10165000D9FE044614B12AA0FEF74CFE0120E7E7AC
:101660002EA0FEF747FE0021084600F0CBFE044600
:1016700014B123A0FEF73EFE1948006802F098F965
:1016800020B12FA0FEF736FE0120D1E70020CFE7E2
:10169000456E746572205461736B48692048616EB1
:1016A000646C65722E0D0A0044656C61792054618A
:1016B000736B204661696C65642E0D0A00000000A2
:1016C0005461736B4869204C4F535F5461736B4492
:1016D000656C617920446F6E652E0D0A0000000074
:1016E0004C00002053757370656E64205461736BF9
:1016F0004869204661696C65642E0D0A000000008F
:1017000053657420496E73706563742053746174FB
:101710007573204572722E0D0A0000005461736BC0
:101720004869204C4F535F5461736B526573756DFC
:101730006520537563636573732E0D0A0000000006
:101740005461736B48692064656C657465206661DB
:10175000696C6564202E0D0A0000000010B518A009
:10176000FEF7C8FD0A2002F0E5F8044624B11AA0ED
:10177000FEF7C0FD012010BD1DA0FEF7BBFD2548F2
:10178000006802F0E1F904466CB123A0FEF7B2FD57
:101790000121002000F036FE044614B124A0FEF71B
:1017A000A9FD0120E7E72948006802F001F920B10E
:1017B00027A0FEF79FFD0120DDE70020DBE700000A
:1017C000456E746572205461736B4C6F2048616E76
:1017D000646C65722E0D0A0044656C617920546159
:1017E000736B4C6F204661696C65642E0D0A0000B6
:1017F0005461736B4869204C4F535F5461736B5352
:10180000757370656E6420537563636573732E0D15
:101810000A0000004C000020526573756D6520546D
:1018200061736B4869204661696C65642E0D0A001E
:1018300053657420496E73706563742053746174CA
:101840007573204572722E0D0A00000050000020B2
:101850005461736B4C6F2064656C657465206661C0
:10186000696C6564202E0D0A0000000010B586B07A
:1018700002F05AF921A0FEF73DFD27480090042010
:10188000ADF8040025A004904FF43470039069462D
:10189000254801F041FF04463CB102F01FFA23A0A5
:1018A000FEF728FD012006B010BD28A0FEF722FD9E
:1018B0002F4800900520ADF804002EA004904FF4AE
:1018C0003470039069462E4801F026FF044674B137
:1018D0001548006802F06CF810B12AA0FEF70AFD66
:1018E00002F0FCF92EA0FEF705FD0120DBE734A095
:1018F000FEF700FD02F0F2F92046D4E74C4F535FAB
:101900005461736B4C6F636B282920537563636557
:101910007373210D0A000000151600084849474856
:101920005F4E414D450000004C0000204578616D40
:10193000706C655F5461736B486920637265617494
:1019400065204661696C6564210D0A004578616D0A
:10195000706C655F5461736B486920637265617474
:10196000652053756363657373210D0A00000000E1
:101970005D1700084C4F575F4E414D450000000079
:10198000500000205461736B48692064656C657475
:1019900065206661696C6564202E0D0A00000000F8
:1019A0004578616D706C655F5461736B4C6F20633B
:1019B0007265617465204661696C6564210D0A0079
:1019C0004578616D706C655F5461736B4C6F20631B
:1019D00072656174652053756363657373210D0AC5
:1019E000000000002DE9F0414FF0000854A0FEF780
:1019F00081FC08215748006800F0B1FE04462CB96C
:101A000055A0FEF777FC0120BDE8F08100BF6460BF
:101A1000246000BF20464168814201D1012100E0DD
:101A2000002121B951A0FEF765FC0120ECE754A08C
:101A3000FEF760FC08214748006800F090FE05466C
:101A400025B957A0FEF756FC0120DDE708214148E3
:101A5000006800F084FE06464EB93FA0FEF74AFC3F
:101A600029463C48006800F099FE0120CCE7082197
:101A70003848006800F073FE074677B936A0FEF7D5
:101A800039FC29463348006800F088FE3146314869
:101A9000006800F083FE0120B6E72946204600F0EA
:101AA000EDFD3146284600F0E9FD2868A04202D04D
:101AB0003068A84202D13EA0FEF71CFC00BF3946A8
:101AC000206800F0DBFD00BF3868B04202D13DA0C5
:101AD000FEF710FC40A0FEF70DFC00BFD5E90001A9
:101AE0000860D5E90010486000206860286000BFE9
:101AF00029461848006800F051FE6068B0420ED1D7
:101B00003AA0FEF7F7FB0021072000F07BFC80469F
:101B1000B8F1000F11D03BA0FEF7ECFB0DE040A0A8
:101B2000FEF7E8FB0121072000F06CFC8046B8F1CD
:101B3000000F02D033A0FEF7DDFB002064E70000B9
:101B4000696E697469616C2E2E2E2E2E2E200D0A60
:101B500000000000E40100206D616C6C6F63206682
:101B600061696C6564200D0A00000000696E69748B
:101B700069616C206661696C6564200D0A00000073
:101B80006E6F64652061646420616E6420746169B5
:101B90006C206164642E2E2E2E2E2E0D0A00000065
:101BA0006D616C6C6F63206661696C65640A00002E
:101BB000616464206E6F646520737563636573731D
:101BC000200D0A00616464207461696C2073756380
:101BD00063657373200D0A0064656C657465206E1F
:101BE0006F64652E2E2E2E2E2E0D0A0064656C65F8
:101BF0007465206E6F646520737563636573730D20
:101C00000A00000053657420496E73706563742088
:101C1000537461747573204572720D0A00000000E0
:101C200064656C657465206E6F6465206572726FA3
:101C3000720D0A0010B586B0002400200121009129
:101C400005AB404ACDE9011001464FF47A7001F02E
:101C5000E3FB04461CB13CA0FEF74CFB02E041A0B4
:101C6000FEF748FB00200121009104AB444ACDE976
:101C70000110642001F0D0FB04461CB141A0FEF726
:101C800039FB02E046A0FEF735FBBDF8140001F079
:101C900065FC04461CB149A0FEF72CFB02E04DA0F8
:101CA000FEF728FBC82001F045FEBDF8140001F046
:101CB000F1FC04461CB14DA0FEF71CFB02E051A054
:101CC000FEF718FBBDF8140001F048FC044614B1FF
:101CD0003AA0FEF70FFB4FF47A7001F02BFEBDF82F
:101CE000140001F0F7FB04461CB14CA0FEF702FB08
:101CF00002E051A0FEF7FEFABDF8100001F02EFC44
:101D000004461CB153A0FEF7F5FA02E057A0FEF717
:101D1000F1FA4FF47A7001F00DFEBDF8100001F0F9
:101D2000B9FC044614B158A0FEF7E4FABDF810005F
:101D300001F0D0FB044614B159A0FEF7DBFA0020F5
:101D400006B010BDD540000863726561746520540B
:101D5000696D657231206661696C6564202E0D0ABB
:101D6000000000006372656174652054696D6572DE
:101D7000312073756363657373202E0D0A000000B4
:101D80002D4100086372656174652054696D657248
:101D900032206661696C6564202E0D0A0000000027
:101DA0006372656174652054696D65723220737564
:101DB0006363657373202E0D0A00000073746172F3
:101DC000742054696D657231206661696C656420A8
:101DD0002E0D0A0073746172742054696D6572313E
:101DE00020737563657373202E0D0A0073746F7012
:101DF0002054696D657231206661696C6564202EBE
:101E00000D0A000073746F702054696D6572312083
:101E1000737563657373202E0D0A000064656C652D
:101E200074652054696D657231206661696C656402
:101E3000202E0D0A0000000064656C657465205456
:101E4000696D65723120737563657373202E0D0A99
:101E50000000000073746172742054696D65723201
:101E6000206661696C6564202E0D0A0073746172CE
:101E7000742054696D657232207375636365737382
:101E8000202E0D0A0000000073746F702054696DDD
:101E9000657232206661696C6564202E0D0A00004F
:101EA00064656C6574652054696D65723220666185
:101EB000696C6564202E0D0A000000002DE9F041D8
:101EC000024600250026002000230024002791F868
:101ED00003C00CF00F0591F803C00CF0100CBCF11E
:101EE000000F03D091F802C04CEA050591F800C03C
:101EF000BCF1000F31D0146800202BE04FF0010C32
:101F00000CFA00F3B1F800C00CEA03069E4220D19F
:101F100083004FF00F0C0CFA03F7BC4305FA03FCE7
:101F20004CEA040491F803C0BCF1280F06D14FF02D
:101F3000010C0CFA00FCC2F814C00AE091F803C0CE
:101F4000BCF1480F05D14FF0010C0CFA00FCC2F8AF
:101F500010C0401C0828D1D31460B1F800C0BCF1F7
:101F6000FF0F34DD546800202EE000F1080C4FF024
:101F7000010808FA0CF3B1F800C00CEA03069E420F
:101F800021D183004FF00F0C0CFA03F7BC4305FA84
:101F900003FC4CEA040491F803C0BCF1280F05D1FE
:101FA00000F1080C08FA0CF8C2F8148091F803C08C
:101FB000BCF1480F07D100F1080C4FF0010808FAF6
:101FC0000CF8C2F81080401C0828CED35460BDE83D
:101FD000F08100BFFEE702465018401E904204D92F
:101FE0005018401E4B1E98437047481E22EA0000BE
:101FF000FAE70000034800684FF47A71B0FBF1F093
:1020000070470000000000202DE9F84305460C460B
:1020100016461F46DDF820800A48006848B1094886
:10202000CDF800803B4632462146D0F800C0284615
:10203000E0470548844202D00020BDE8F883002034
:10204000FBE70000E8010020F8C3B2A170B5044628
:102050000D460CB9064870BDFEF708F90646206823
:10206000284020603046FEF709F90020F3E7000021
:10207000061C0002014609B90448704700200860A8
:10208000081D4060006000BF0020F6E7061C00024B
:102090002DE9F04104460D4616460027FEF7E6F806
:1020A000804606F0020030B12068284058B1206810
:1020B00000EA050707E035B120682840A84202D1B0
:1020C000206800EA05072FB106F0010010B1206872
:1020D000B84320604046FEF7D1F83846BDE8F081AD
:1020E0002DE9F04706460F46144698464FF0000982
:1020F00016B93B48BDE8F087B06808B1706810B900
:102100003748401CF6E717B93548001FF2E707F0DB
:10211000007010B13248801FECE704F0020010B1EB
:1021200004F0040028B924F0070010B904F00600F8
:1021300010B92B48801EDDE702F016FC10B12848CC
:10214000C01ED7E7FEF792F882462246394630464F
:10215000FFF79EFF8146B9F1000F3CD1B8F1000FA7
:1021600004D15046FEF78AF84846C3E71D48008868
:1021700028B15046FEF782F81948401EBAE71A48BF
:102180000568AF64EC6442460821301D03F000FD91
:102190005046FEF773F800F087FF287900F0400002
:1021A00060B1FEF763F88246A88820F04000A8805E
:1021B0005046FEF763F80A48401F9BE7FEF756F8C3
:1021C0008246224639463046FFF762FF8146504636
:1021D000FEF754F802E05046FEF750F8484689E70B
:1021E000061C000248010020400100202DE9F047B4
:1021F00004460E460027B84614B92848BDE8F087C3
:10220000A06808B1606810B92448401CF6E706F0E1
:10221000007010B12148801FF0E7FEF727F88146D3
:10222000206830432060201D00F065FA78BBA0686C
:10223000A0F128051CE0E86AA0F1280795F84C00F9
:1022400000F0020010B1A86C304050B995F84C0075
:1022500000F0040058B1A86C21680840A96C8842BD
:1022600005D14FF001080821284603F0B7FC3D4690
:1022700005F12800211D8842DDD1B8F1010F07D1F9
:102280004846FDF7FBFF00F00FFF0020B6E7FFE731
:102290004846FDF7F3FF0020B0E70000061C0002EF
:1022A0002DE9F04105460027FF260A2D06DB2946C9
:1022B0002EA0FEF71FF80120BDE8F081002449E0C0
:1022C000314800EB04100078A84242D12E4800EBC0
:1022D0000410406828B929462CA0FEF70BF801200D
:1022E000EAE7294901EB041148688047074600BF27
:1022F000254800EB0410407850B94FB9224800EB54
:10230000041000F108012DA0FDF7F4FF002610E0F5
:102310001D4800EB0410407801280AD101261A4814
:1023200000EB041000F108012A4802682AA0FDF71A
:10233000E1FF642001F0FEFA134800EB041040783E
:10234000FF28D5D0104800EB04104078B042CFD120
:1023500002E0641C0A2CB3D300BF0A2C01D1012077
:10236000AAE70EB10120A7E70020A5E70D0A496EF4
:1023700073706563744944203D205B25645D20458E
:1023800072722E0D0A00000064000020496E737006
:102390006563744944203D205B25645D204572726D
:1023A0002C496E737065637466756E632069732063
:1023B0004E554C4C2E0D0A0D0A000000496E7370EC
:1023C00065637420257320737563636573730D0AE9
:1023D0000D0A00005C000020496E73706563742074
:1023E0002573206572726F722C67496E7370656316
:1023F00074457272436E74203D205B25645D0D0A46
:102400000D0A000070B505460E4600240A2D05DBB6
:10241000294610A0FDF76EFF012070BD00240BE0DF
:10242000134800EB04100078A84204D1104800EBD8
:102430000410467002E0641C0A2CF1D300BF0A2C81
:1024400005D129460BA0FDF755FF0120E5E7002047
:10245000E3E700000D0A496E737065637449442018
:102460003D205B25645D204572722E0D0A00000040
:10247000640000200D0A496E73706563744944203E
:102480003D205B25645D206E6F742066696E642E4E
:102490000D0A000010B586B018216846FEF7E5F871
:1024A0000A4800904FF43470039009A0049009206A
:1024B000ADF804006946094801F02EF9044614B14C
:1024C000012006B010BD0020FBE70000E124000859
:1024D000496E737065637454736B00006000002074
:1024E000002500200D4908600DA0FDF703FF002422
:1024F0000AE0E0B2FFF7D4FE054625B107480068C0
:10250000401C06490860641C0A2CF2D30348016889
:1025100009A0FDF7EFFE00BFFEE700005C00002011
:102520000D0A4C6F7320496E737065637420737469
:102530006172742E0D0A0000496E73706563742019
:10254000636F6D706C657465642C67496E7370653C
:102550006374457272436E74203D205B25645D0D8B
:102560000A0D0A0010B502F099FC2A482A490860B1
:1025700002F0FCF9044654B100BF28A0FDF7BAFEF2
:10258000214628A0FDF7B6FE00BF204610BD03F08F
:1025900007F904464CB100BF20A0FDF7ABFE28A010
:1025A000FDF7A8FE00BF2046F0E703F08DF902F02A
:1025B000DDFC04460CB12046E8E702F0E5F90446EC
:1025C0000CB12046E2E702F02DFB04464CB100BFFF
:1025D00012A0FDF78FFE1FA0FDF78CFE00BF204666
:1025E000D4E702F021FE04464CB100BF0BA0FDF77A
:1025F00081FE1DA0FDF77EFE00BF2046C6E703F06A
:10260000C9FB02F08BF904460CB12046BEE700205E
:10261000BCE70000300D0020E40100205B45525271
:102620005D2000006F734D656D53797374656D495E
:102630006E6974206572726F722025640A00000052
:102640006F735461736B496E6974206572726F7237
:102650000A0000006F735175657565496E697420D5
:102660006572726F720A00006F735377546D72490E
:102670006E6974206572726F720A000042684A6067
:102680000860426811604160704742684A600860B3
:10269000426811604160704742684A600860426861
:1026A00011604160704742684A600860426811608A
:1026B0004160704742684A6008604268116041604A
:1026C0007047D0E900121160D0E90021516000216B
:1026D00041600160704701464868884201D101208D
:1026E00070470020FCE701464868884201D101207C
:1026F00070470020FCE701464868884201D101206C
:1027000070470020FCE701464868884201D101205B
:1027100070470020FCE701464868884201D101204B
:1027200070470020FCE701464868884201D101203B
:1027300070470020FCE74060006070474060006028
:10274000704740600060704740600060704770B53F
:1027500004460D4629462068FFF797FF70BD70B507
:1027600004460D46002604B10DB9304670BD294619
:10277000204602F099FC064626B92946204601F07B
:10278000E7FE06463046F1E770B504460D461646AC
:1027900032462946204601F08FFF70BD70B50446D1
:1027A0000D46002604B10DB9012070BD2946204612
:1027B00002F0CAFC0646012E04D02946204601F04C
:1027C000A9FF0646012E01D00120EEE70020ECE72C
:1027D0002DE9F84F04460E464FF0010830480568D1
:1027E000D0F800900CB1502E02D80120BDE8F88F2F
:1027F00004F0030008B10120F8E7FDF737FD824639
:1028000020E0A8684719AC4202D8A019A84204D811
:10281000BC4215D2A019B84212D300BF21A0FDF7C7
:1028200069FDA8682844A2192B46214600901FA0E4
:10283000FDF760FD00BF5046FDF720FD0120D5E704
:10284000A946ED68002DDCD13146204602F002F8A1
:102850008046B8F1000F04D15046FDF70FFD01206E
:10286000C4E7B6F5805F0BD3204602F0A7FC804694
:10287000B8F1000F04D15046FDF700FD0120B5E787
:102880000748006810B90648046001E0C9F80C4028
:102890000020E0605046FDF7F1FC0020A6E70000B4
:1028A000E00100205B4552525D200000706F6F6CAC
:1028B000205B25702C20307825782920636F6E6688
:1028C0006C696374207769746820706F6F6C205B2B
:1028D00025702C2030782578290A00002DE9F04158
:1028E000064634460027002516B90020BDE8F081D1
:1028F000FDF7BCFC804604F10C07386838B13D6830
:102900002868386006482860A068401CA0604046DF
:10291000FDF7B4FC0DB90020E8E7281DE6E700004C
:10292000A55A5AA570B504460D46264604B105B908
:1029300070BD3068011F2846FDF775FE00BFF7E740
:102940002DE9F04705460E462C46012705B116B97C
:102950000120BDE8F087FDF789FC804600BF311FEC
:1029600020460A46D0F800C0BCF1000F02D14FF05B
:10297000010C25E000F1100CA2EB0C03D0F800C014
:10298000B3FBFCF90CFB193CBCF1000F02D04FF07B
:10299000010C15E0D0F800C0B3FBFCFCD0F80490AB
:1029A000CC4502D34FF0010C0AE0DFF83890D2F8A2
:1029B00000C0CC4502D04FF0010C01E04FF0000CFC
:1029C000BCF1000F00D007E0E0680860E160A0689B
:1029D000401EA060002700BF00BF4046FDF74EFC30
:1029E0003846B6E7A55A5AA52DE9F04706460F46E0
:1029F00090463446002526B1B8F1000F01D0102FC3
:102A000002D20120BDE8F08706F0030008B10120E2
:102A1000F8E7FDF72BFC824608F1070020F00300E1
:102A20002060A7F110002168B0FBF1F06060002089
:102A3000A060606820B95046FDF720FC0120E1E766
:102A400004F11005E5604FF0000905E02068284416
:102A500028602D6809F101096068401E4845F5D8D5
:102A6000002028605046FDF709FC0020CAE700005E
:102A70002DE9F843064616B91E48BDE8F883FDF770
:102A8000F5FB81461C48FFF73EFE40B14846FDF786
:102A9000F5FB00BF174F7F1CDFF860801FE0164872
:102AA000446800BFD4E900010860D4E90010486020
:102AB00000206060206000BFA4F10805688001204C
:102AC00028700020A882286105F10800FFF736FE73
:102AD000686830604846FDF7D1FB0020CDE700BFB5
:102AE000002003463A464146009005A0FFF78CFAC5
:102AF0003846C2E7021D0002B0010020F8C3B2A1AF
:102B00006F735F756E73706563696669635F66692D
:102B10006C6500002DE9F84307460F2F03D300BF73
:102B20001D4D1E4E2DE007EB47001D49096801EBC6
:102B3000C004FDF79BFB8046207830B94046FDF786
:102B40009DFB00BF144D154E1BE004F10800FFF77C
:102B5000DAFD08B1608838B14046FDF78FFB00BF51
:102B60000D4D08350D4E0CE004F108010D48FFF73E
:102B700093FD002020704046FDF780FB0020BDE85B
:102B8000F88300BF002003462A463146009006A085
:102B9000FFF73AFA2846F2E7011D0002F8C3B2A196
:102BA000AC010020B00100206F735F756E7370651B
:102BB00063696669635F66696C6500002DE9F843C7
:102BC000074688460F2F0BD300BF00200346494A13
:102BD0004949009049A0FFF717FA4648BDE8F88335
:102BE00007EB47004A49096801EBC004FDF73EFBCB
:102BF0008146207868B94846FDF740FB00BF0020B9
:102C000003463C4A3C4900903CA0FFF7FDF9394897
:102C1000E4E701F0A9FE28B14846FDF72FFB35484F
:102C2000001DDBE73B480568608850B96088401CA0
:102C300060802561E888A0824846FDF71FFB0020E0
:102C4000CCE72069A84207D16088401C60804846D4
:102C5000FDF714FB0020C1E7B8F1000F05D148468D
:102C6000FDF70CFB2348C01CB8E72B48008850B187
:102C7000204E761D00BF29A0FDF73CFB29A0FDF7E3
:102C800039FB00BF27E0EC612069C088E9888842F1
:102C900003DDE988206902F02FFE4246082104F195
:102CA000080002F075FF4846FDF7E8FA00F0FCF96D
:102CB000287900F0400060B1FDF7D8FA8146A88875
:102CC00020F04000A8804846FDF7D8FA094EB61D0E
:102CD00005E0002082E74846FDF7D0FA00BF00BFBC
:102CE0000020034632460449009004A0FFF78CF907
:102CF000304673E7011D0002F8C3B2A16F735F7520
:102D00006E73706563696669635F66696C65000010
:102D1000AC01002040010020480100205B455252D8
:102D20005D2000002121214C4F535F4552524E4FF0
:102D30005F4D55585F50454E445F494E5F4C4F4381
:102D40004B2121210A0000002DE9F843064606EB3D
:102D500046003049096801EBC004FDF787FA804658
:102D60000F2E01D2207870B94046FDF787FA00BFD8
:102D700000200346284A2949009029A0FFF744F97A
:102D80002548BDE8F8832B480768608810B12069A2
:102D9000B8420DD04046FDF771FA00BF002003464F
:102DA0001D4A1E4900901EA0FFF72EF91A48E8E7B9
:102DB0006088401E80B2608020B14046FDF75EFA18
:102DC0000020DEE72069C088A18A884203D0A18A5A
:102DD000206902F091FD04F10800FFF794FC98B916
:102DE000E068A0F12805012060802561E888A082C4
:102DF0000020E8610821284602F0F0FE4046FDF779
:102E00003DFA00F051F902E04046FDF737FA0020A4
:102E1000B7E70000AC010020011D0002F8C3B2A119
:102E20006F735F756E73706563696669635F66690A
:102E30006C650000400100202DE9F05F0E469046D1
:102E4000DDF8289009F104001FFA80FAB8F1000FAC
:102E500002D12E48BDE8F09F4FF6FB70814502DDA0
:102E60002A480938F6E716B1B9F1000F02D1274810
:102E7000401CEFE706FB0AF125480068FFF76FFCEE
:102E8000074617B921480A38E4E7FDF7EFF983460A
:102E90002048FFF740FC50B15846FDF7EFF939469E
:102EA0001B480068FFF77AFC18480838D2E7194831
:102EB000456800BFD5E900010860D5E90010486009
:102EC00000206860286000BFA5F11C04E680A4F81B
:102ED00008A027600120A080002020826682A081B7
:102EE000E08104F11400FFF72CFC04F11C00FFF753
:102EF00028FC04F12400FFF724FC5846FDF7BEF936
:102F00006089C8F800000020A4E700000C06000259
:102F1000E4010020BC0100202DE9F0410646002715
:102F20000A2E02D32648BDE8F081FDF79FF98046BE
:102F300006EB460000EBC6002249096801EB80045D
:102F4000A08810B91E4D6D1D34E004F11400FFF788
:102F5000E2FB10B91A4DED1C2CE004F11C00FFF748
:102F6000DAFB10B9164DED1C24E004F12400FFF744
:102F7000D2FB10B9124DED1C1CE0608A218A084476
:102F8000E188884202D00E4DAD1D13E02768002075
:102F90002060A08004F11C010B48FFF784FB404631
:102FA000FDF76CF9394609480068FFF7F7FB05465D
:102FB0002846B8E74046FDF761F92846B3E7000028
:102FC00005060002B8010020BC010020E401002039
:102FD0002DE9FF4182B080460C461D462B4604AACF
:102FE0002146404601F01AFF06461EB1304606B0A3
:102FF000BDE8F081042704AB2246394640460095DF
:1030000001F048FEF3E72DE9F84381460C461546EA
:103010001E4633462A462146484601F0FFFE074633
:1030200017B13846BDE8F8834FF000082B4622461A
:1030300041464846009601F02DFEF3E7FFB581B00A
:1030400007461C4604200390234603AA38460299EB
:1030500001F004FF054615B1284605B0F0BD07266E
:1030600003AB02AA31463846009401F013FEF4E7A0
:103070002DE9FF4182B080460C461D462B4604AA2E
:103080002146404601F0EAFE06461EB1304606B033
:10309000BDE8F081032704AB22463946404600953F
:1030A00001F0F8FDF3E7000010B5FDF7DFF8044686
:1030B00001F01EFD28380A49486008460068496842
:1030C000884208D00748008828B92046FDF7D6F87E
:1030D000FDF7D7F810BD2046FDF7D0F800BFF9E79F
:1030E000400100204801002070B505460C462246EC
:1030F0004FF6FF71284601F0DBFE70BD2DE9F84365
:103100000746142F03D300BF1B4D1C4E29E01C485B
:10311000006800EB0714FDF7A9F88046208830B955
:103120004046FDF7ABF800BF134D144E19E004F113
:103130000800FFF7F8FA38B94046FDF79FF800BFDE
:103140000D4D08350D4E0CE004F108010D48FFF758
:10315000B1FA002020804046FDF790F80020BDE83D
:10316000F88300BF002003462A463146009006A09F
:10317000FEF74AFF2846F2E701070002F8C3B2A1B2
:10318000CC010020C40100206F735F756E73706501
:1031900063696669635F66696C6500002DE9F843E1
:1031A00007468846142F0BD300BF002003463C4A35
:1031B0003C4900903CA0FEF727FF3948BDE8F88362
:1031C0003E48006800EB0714FDF750F88146208860
:1031D00068B94846FDF752F800BF00200346304A60
:1031E0003049009030A0FEF70FFF2D48E6E76088D9
:1031F000002807DD6088401E60804846FDF73EF8E5
:103200000020DBE7B8F1000F02D1254DED1C39E0BD
:1032100001F0AAFB50B1224D2D1D00BF28A0FDF7E3
:1032200069F829A0FDF766F800BF2BE02F48008859
:1032300050B11B4D6D1D00BF21A0FDF75BF82CA008
:10324000FDF758F800BF1DE032480668B4614246F9
:10325000082104F1080002F09BFC4846FDF70EF837
:10326000FFF722FF307900F0400048B1FCF7FEFF85
:103270008146B08820F04000B080094DAD1D01E0CE
:1032800000209BE74846FCF7F9FF00BF00200346FB
:103290002A460449009004A0FEF7B6FE28468DE7B2
:1032A00001070002F8C3B2A16F735F756E7370659A
:1032B00063696669635F66696C650000CC01002024
:1032C0005B4552525D2000002121214C4F535F4548
:1032D00052524E4F5F53454D5F50454E445F494EED
:1032E000544552522121210A0000000048010020CB
:1032F0002121214C4F535F4552524E4F5F53454D54
:103300005F50454E445F494E5F4C4F434B21212156
:103310000A00000040010020F8B505462548006875
:1033200000EB0514142D01D32348F8BDFCF79EFFD4
:103330000746208868B93846FCF7A0FF00BF002088
:1033400003461D4A1D4900901DA0FEF75DFE1A4868
:10335000EBE7A088618888420FD13846FCF78EFFE2
:1033600000BF00200346144AD21D1449009014A047
:10337000FEF74AFE1048C01DD7E704F10800FFF72A
:10338000D2F970B9E068A0F128060020B0610821E8
:10339000304602F023FC3846FCF770FFFFF784FE4E
:1033A00005E06088401C60803846FCF767FF00201D
:1033B000BBE70000CC01002001070002F8C3B2A166
:1033C0006F735F756E73706563696669635F666965
:1033D0006C65000010B502F039FC04464CB100BF2A
:1033E00006A0FCF787FF07A0FCF784FF00BF20467C
:1033F00010BDFCF717FF2046FAE700005B4552526C
:103400005D2000006F735469636B537461727420A4
:103410006572726F720A00002DE9F84F06460D467C
:1034200017469846DDE90AB9DDF830A016B92748F5
:10343000BDE8F88F35B1012D04D0022D02D023480C
:10344000401CF5E717B92148401EF1E7B8F1000F1D
:1034500002D11E48801CEBE7B9F1000F05D0B9F18D
:10346000010F02D019481030E2E7BAF1010F05D080
:10347000BAF1000F02D015481130D9E7FCF7F6FE7B
:1034800000901348006828B90098FCF7F7FE0F4831
:10349000C01CCDE70E4804680D49206808600098FC
:1034A000FCF7ECFEA7616571266100202060E060FA
:1034B000C4F814B084F8069084F807A001202071A5
:1034C0002089A8F800000020B2E7000001030002F4
:1034D000280100202DE9F041044600274FF6F07046
:1034E000844202DB1B48BDE8F081FCF7BFFE80464A
:1034F0002046E11704EB11710911A4EB01118EB202
:10350000C6EBC6001449096801EB80052889A04272
:1035100004D04046FCF7B2FE0E48E4E7287920B11B
:10352000012809D002280BD102E00A4F7F1C0AE0D3
:10353000284602F07BF800BF284602F04DF802E072
:10354000044F093700BF00BF4046FCF797FE3846DE
:10355000C9E7000005030002240100202DE9F0471F
:1035600005464FF000084FF6F070854202DB4648F2
:10357000BDE8F087FCF77AFE81462846E91705EB9F
:1035800011710911A5EB01118FB2C7EBC7003F49BB
:10359000096801EB80042089A84204D04846FCF762
:1035A0006DFE3948E4E7E07901284ED160790128C1
:1035B0004BD12089C21700EB12721211A0EB02123C
:1035C000334B53F8222042F080420146C31700EBF0
:1035D00013731B11A0EB0313DFF8B4C04CF82320C6
:1035E0000A212069B0FBF1F201FB120068BB2089BF
:1035F000C21700EB12721211A0EB0212634653F8CD
:10360000222042F000520146C31700EB13731B1136
:10361000A0EB03134CF823200A212069B0FBF1F63C
:103620002089C21700EB12721211A0EB021263463E
:1036300053F8222066F317020146C31700EB1373F9
:103640001B11A0EB03134CF82320207920B1012893
:103650000BD002280DD104E0DFF82C8008F101081E
:103660000CE0204601F0E2FF00BF204601F02CFEF6
:1036700004E0DFF8148008F1090800BF00BF4846E5
:10368000FCF7FCFD404673E705030002240100201F
:10369000380500202DE9F041044600274FF6F07070
:1036A000844202DB1A48BDE8F081FCF7DFFD80466A
:1036B0002046E11704EB11710911A4EB01118EB240
:1036C000C6EBC6001349096801EB80052889A042B2
:1036D00004D04046FCF7D2FD0D48E4E7287920B13C
:1036E000012805D002280AD105E0094F7F1C09E016
:1036F000074F083706E0284601F098FF02E0044F24
:10370000093700BF00BF4046FCF7B8FD3846CAE79E
:1037100005030002240100202DE9F04105460F4673
:1037200000263946284600F045F8064616B13046D0
:10373000BDE8F0812868C0EBC00000EB40001949EB
:10374000096801EB8004FCF791FD8046A08820F019
:103750000200A080A08840F00400A080E18804F16D
:10376000280001F069F901F0C3F928380E494860D2
:103770000E48006888B10E48008870B90846006895
:103780004968884209D00A48008830B94046FCF7A9
:1037900075FD01F089FB0020CAE74046FCF76EFD8D
:1037A0000020C5E73C0100204001002078010020F6
:1037B000480100202DE9F05F07460C464FF0000855
:1037C0004FF0FF3A17B95448BDE8F09F14B952487A
:1037D000801FF9E7206910B94F48801EF4E7206880
:1037E00010B94D48C01EEFE7A0881F2802DD4A48E7
:1037F000001FE9E7A0881F2806D1484920688842B1
:1038000002D04548001FDFE74549464A511AE068A3
:10381000884202D940481930D6E7E06810B94FF421
:103820003470E0600821E068FEF7D5FBE060E068F6
:10383000B0F5987F02D23848401EC5E7FCF716FD68
:10384000834612E038484068A0F1280536494868A8
:10385000FEF737FF05F128013448FEF716FF304820
:10386000E968FEF79BFF0020E8602F48FEF73BFF6A
:103870000028E7D02D48FEF736FF28B1DFF898A0E2
:103880000AF10A0A00BF41E028484068A0F1280573
:1038900026494868FEF715FF5846FCF7EFFCD5F8B7
:1038A000108008221E48E168FEF76EFF06465EB9EA
:1038B000FCF7DCFC834605F128011C48FEF7E5FE19
:1038C000DFF86CA000BF21E032464046E16802F01C
:1038D00069FA8146C5F80090A0682862EE60E06849
:1038E000A8600020A861E8610220A880A088E88084
:1038F000206868614FF0FF30E8630020A864206909
:10390000686200202865C7F800805DE75846FCF72C
:10391000B5FC504658E700000702000219490008AC
:10392000300D0020005000206801002060010020C0
:103930000002000370B5044601F016F808B11848FB
:1039400070BD1848008808B11748F9E714B900F0AD
:10395000E3F9F5E7FCF78AFC05461449096801F12B
:10396000280001F043F811480068808820F0040026
:103970000E49096888800D490868214601F094FEC7
:103980000A480068808840F020000849096888805B
:103990002846FCF773FCFFF787FB0020D0E7000008
:1039A0000D020003480100200E0200024001002029
:1039B0002DE9F04106464FF0FF3751480068864236
:1039C00002D15048BDE8F0814F480068864202D1DC
:1039D0004C480D30F6E74D480068864202D349480E
:1039E0000D38EFE7FCF742FC8046C6EBC60000EB63
:1039F00040004749096801EB8004A58805F00100F3
:103A000018B1404F0A3F00BF74E005F0100028B124
:103A10004048008810B100203E49088005F00400AD
:103A200040B104F1280000F0E1FFA08820F004007C
:103A3000A08009E005F0080010B905F4005018B1A5
:103A400004F12800FEF73DFE05F0600010B12046AD
:103A500002F056F9A08820F00200A080A08840F073
:103A60000100A0804FF0FF30E0630020A06401F06F
:103A70003FF8283828494860207900F0100038B312
:103A800004F128012548FEF762FE20480068C0EBDB
:103A9000C00000EB40001E49096801EB80001E4990
:103AA0000860084600680661A088096888801A498D
:103AB000E0680968C8601849606A096848620120BE
:103AC000A0804046FCF7DAFB01F0EEF9002079E730
:103AD0000120A08004F128011148FEF7D6FD11480D
:103AE000E168FEF75BFE0020E0604046FCF7C6FBA5
:103AF000002067E74046FCF7C1FB384662E700005C
:103B00005001002014020002540100204C0100204A
:103B10003C010020480100204001002068010020F5
:103B200060010020300D002010B5FCF79FFB04461B
:103B300004480088401C034908802046FCF79EFB8F
:103B400010BD0000480100202DE9F04105464FF06E
:103B5000FF370F2D02D92448BDE8F081C5EBC50021
:103B600000EB40002149096801EB8004FCF77EFB73
:103B70008046A68806F0010018B11B4FFF1C00BF4D
:103B80002CE006F0020018B9174FBF1C00BF25E05B
:103B9000A08820F00200A080A08842F22A410840BC
:103BA000B8B9A08840F00400A080E18804F12800A2
:103BB00000F042FF0E48006830B14046FCF75EFB63
:103BC000FFF772FA0020C7E700F092FF2838094992
:103BD00048604046FCF752FB0020BDE74046FCF73A
:103BE0004DFB3846B8E70000070200023C01002008
:103BF00078010020400100202DE9F04105464FF0FA
:103C0000FF372E480068854202D12D48BDE8F0817B
:103C10002C480068854202D129480D30F6E72A4831
:103C20000068854202D326480D38EFE7C5EBC50092
:103C300000EB40002549096801EB8004FCF716FB06
:103C40008046A68806F0010018B11D4F0A3F00BF4C
:103C50002FE006F0020018B1194F0C3F00BF28E01A
:103C600006F0100028B11A48008810B1194F00BFA3
:103C70001FE006F0040038B104F1280000F0B6FEA1
:103C8000A08820F00400A080A08840F00200A0805E
:103C9000114800680069A84206D14046FCF7EEFAD8
:103CA000FFF702FA0020B1E74046FCF7E7FA0020F0
:103CB000ACE74046FCF7E2FA3846A7E7500100209F
:103CC00014020002540100204C0100203C0100209D
:103CD00048010020150200034001002010B5FCF748
:103CE000C5FA04460B48008800280DDD0948008805
:103CF000401E084908800846008828B92046FCF77D
:103D0000BDFAFFF7D1F910BD2046FCF7B7FA00BFA6
:103D1000F9E700004801002070B500242048006841
:103D2000006920490968884201D31F4870BD1C48BA
:103D30000068007900F0040008B90020F6E7FCF7FD
:103D400095FA054616490968C88800F0BDFE044684
:103D5000012C17D91249096801F12800FEF7B1FCBE
:103D60000F480068808840F004000D490968888089
:103D70000B4A1268D1880A4A126802F1280000F042
:103D80005BFE05E02846FCF779FA07480930CDE7E5
:103D90002846FCF773FAFFF787F90020C6E7000012
:103DA000400100204C01002007020002014903C924
:103DB000704700008801002000BFFEE7704708B58B
:103DC0004FF4A06000F046F825208DF80000012097
:103DD0008DF801008DF802008DF80300684600F0B0
:103DE00001F808BD70B5002100230F22C47804B388
:103DF000154C246804F4E064C4F5E064210AC1F1C0
:103E00000403CA40447804FA03F18478144021433F
:103E100009010E4C0678A155047804F01F05012411
:103E2000AC4005786D11AD0005F1E025C5F8004105
:103E300009E0047804F01F050124AC40044D067825
:103E4000761145F8264070BD0CED00E000E400E07E
:103E500080E100E002490143024A1160704700001E
:103E60000000FA050CED00E029B1064A9269024310
:103E7000044B9A6104E0034A92698243014B9A61C0
:103E8000704700000010024030B5002100220024DD
:103E900000232D4D6D6805F00C0121B1042905D0DA
:103EA000082923D105E0294D056022E0274D056052
:103EB0001FE0254D6D6805F47012234D6D6805F403
:103EC0008034022505EB92421CB9214D5543056013
:103ED0000BE01D4D6D6805F400351DB11C4D5543BB
:103EE000056002E0194D5543056002E0174D05607D
:103EF00000BF00BF144D6D6805F0F0010909154DB4
:103F00006B5C0568DD4045600F4D6D6805F4E06150
:103F1000090A104D6B5C4568DD4085600A4D6D688F
:103F200005F46051C90A0B4D6B5C4568DD40C56006
:103F3000054D6D6805F44041890B074D6B5CC56804
:103F4000B5FBF3F5056130BD0010024000127A00A8
:103F500000093D000401002014010020704710B545
:103F600000F002F810BD00000CB500200190009098
:103F70003348006840F480303149086000BF304861
:103F8000006800F4003000900198401C01900098F7
:103F900018B90198B0F5A06FF1D12948006800F474
:103FA000003010B10120009001E000200090009846
:103FB000012843D12348006840F0100021490860DF
:103FC0000846006820F0030008600846006840F0DA
:103FD000020008601A48406819494860084640686D
:103FE00048600846406840F4806048600846406881
:103FF00020F47C1048600846406840F4E8104860AF
:104000000846006840F08070086000BF0C480068F7
:1040100000F000700028F9D00948406820F0030043
:10402000074948600846406840F00200486000BF09
:104030000348406800F00C000828F9D10CBD0000CE
:10404000001002400020024010B50848006810B17E
:1040500001F0E8FD08E00648D0E900305A1C40F1C4
:1040600000000349C1E9002010BD0000A0010020AC
:104070008801002010B51348006840F00100114984
:10408000086008464068104908400E4948600846E4
:1040900000680E4908400B4908600846006820F493
:1040A000802008600846406820F4FE0048604FF415
:1040B0001F008860FFF753FF4FF00060044908605D
:1040C00010BD0000001002400000FFF8FFFFF6FEE8
:1040D00008ED00E070B5054608480068401C074937
:1040E0000860FFF763FE04460448016804A0FCF77B
:1040F00001F9214608A0FCF7FDF870BD540000202E
:10410000675F74696D6572636F756E74313D2564A8
:10411000202E0D0A000000007469636B5F6C6173F0
:1041200074313D2564202E0D0A00000070B506464E
:104130000024FFF73BFE05460B480068401C0A4977
:1041400008600846016809A0FCF7D4F829460DA0CC
:10415000FCF7D0F800210620FEF754F9044614B10C
:104160000DA0FCF7C7F870BD58000020675F7469A8
:104170006D6572636F756E74323D2564202E0D0A75
:10418000000000007469636B5F6C617374323D25DD
:1041900064202E0D0A00000053657420496E737070
:1041A0006563742053746174757320457272202E98
:1041B0000D0A000010B540F22551064800F060F8E5
:1041C00038B1044800F018F9C4B22146014800F0A3
:1041D00018F910BD0038014021B1828942F4005223
:1041E000828104E082894DF6FF731A408281704714
:1041F00000B585B0012144F20500FFF735FE4FF40C
:104200000070ADF8100018208DF8130003208DF811
:10421000120004A91848FDF751FE4FF48060ADF874
:10422000100004208DF8130003208DF8120004A95B
:104230001148FDF743FE4FF4E13000900020ADF847
:104240000400ADF80600ADF80800ADF80C000C2035
:10425000ADF80A006946094800F062F8FFF7AFFDC3
:10426000012240F22551054800F034F801210348AD
:10427000FFF7B2FF05B000BD000801400038014063
:1042800070B50246002400230025002040F66A167F
:10429000B14200D100BFC1F3421501F01F03012656
:1042A00006FA03F3012D02D19689334006E0022D70
:1042B00002D1168A334001E0968A33400C1201265F
:1042C00006FA04F41688344013B10CB1012000E062
:1042D000002070BDF0B50346002400260025002014
:1042E00040F66A17B94200D100BF1846C1F3421424
:1042F00001F01F06012707FA06F5012C01D10C3049
:1043000004E0022C01D1103000E014301AB107682B
:104310002F43076002E00768AF430760F0BD00006D
:104320002DE9F04786B005460E460024A24600BFA0
:10433000A1460027B08900B100BF2F462C8A4CF659
:10434000FF700440F08804432C82AC894EF6F310D1
:104350000440B08831890843718908430443AC8123
:10436000AC8A4FF6FF400440B0890443AC8201A8F8
:10437000FFF78AFD1F48874202D1DDF810A001E057
:10438000DDF80CA0A88900F4004040B10AEBCA0097
:1043900000EB0A1031684900B0FBF1F807E00AEBC6
:1043A000CA0000EB0A1031688900B0FBF1F8642004
:1043B000B8FBF0F004012009642101FB1089A889F1
:1043C00000F4004040B1322000EBC900B0FBF1F036
:1043D00000F00700044308E0322000EB09106421DC
:1043E000B0FBF1F000F00F0004432C8106B0BDE8F3
:1043F000F08700000038014001468888C0F30800BB
:104400007047C1F308028280704700BFFEE7303872
:104410000A2801D2012070470020704700BF704772
:1044200000BF054A128802F04002002AF9D0C2B249
:10443000014B1B1D1A8070470038014010B5FFF773
:10444000D7FEFEF78FF808B1012010BDFEF722F865
:10445000FEF7C0FF00BFFEE730B585B00446254635
:1044600014216846FCF701F96946204600F022FA5B
:10447000012801D105B030BD00BFFBE730B54C09C4
:10448000031D03EB840203688B4200D830BD01F0AA
:104490001F050124AC401368A343136000BFF5E778
:1044A000F0B5034618681F304609191D0025002283
:1044B00019E00868401C00B913E00868C44301E033
:1044C00064086D1C002CFBD16F1E4FF0010C0CFA20
:1044D00007FC086840EA0C00086005EB4210401E2B
:1044E000F0BD521C091DB242E3D34FF0FF30F7E795
:1044F00010B502461068884201D8002010BD4B0953
:10450000101D50F8230001F01F040123A3401840A0
:1045100008B10120F2E70020F0E701460868704783
:1045200070B505460C462C6004F11F00C108281D1B
:10453000FCF79BF804F01F0040B104F01F014FF09E
:10454000FF3088406209291D41F8220070BD00003B
:104550002DE9F05F81460E460024A2464F4617B96A
:104560000020BDE8F09FFBF781FE8346F01C20F0A1
:1045700003067D6819E06868C0F38070A0B96868B8
:1045800020F04040B0420FD33CB1606820F0404082
:10459000696821F04041884206DD2C46606820F0C1
:1045A0004040B04200D133E02D68002DE3D14CB93A
:1045B00000BF30A0FBF79EFE314630A0FBF79AFE0D
:1045C00000BF48E0606820F04040801B08281ED9EA
:1045D00004F108008519686820F080406860606810
:1045E000801B0838696860F31D0169602C602146F2
:1045F000384600F051F98046B8F1000F01D17D60D6
:1046000001E0C8F80050606866F31D00606000BFFC
:10461000606820F000406060606820F0804000F139
:104620008040606004F1080A2048016806F1080033
:1046300008441E490860084600681D490968884208
:1046400003D91A4800681A4908601A480068401CD3
:104650001849086000BF7868406820F04040B0F515
:10466000806F02DA3846FFF7F7FE5846FBF706FE82
:10467000504676E75B4552525D20000074686572D3
:10468000652773206E6F7420656E6F75676820777D
:10469000686F6C6520746F20616C6C6F6320257887
:1046A000204279746573210A00000000D8010020BF
:1046B000DC010020D00100202DE9F04780460F46A4
:1046C00014460025B8F1000F05D027B1042C02D301
:1046D000601E204010B10020BDE8F0873819A0F11D
:1046E000040949464046FFF733FF054675B1601E91
:1046F0002844611E20EA0106B54200D107E0A6EB7E
:10470000050A4AF0004A46F804AC354600BF284680
:10471000E2E700002DE9F05F81460E464FF0010A06
:104720004D4605B116B90120BDE8F09F56F8048C3E
:1047300008F0004018B128F00048A6EB08062868E9
:10474000B04203D868680830B0420AD200BF38A02F
:10475000FBF7D0FD314638A0FBF7CCFD00BF0020B1
:10476000E2E7FBF783FD8346A6F108046068C0F327
:10477000807088B12868A04211D0206829688842DA
:104780000AD3216868680830814205D82846216824
:1047900000F082F8A04202D04FF0000A43E06068C7
:1047A00020F080406060606820F040400830274979
:1047B0000968884208D8606820F0404008302349E2
:1047C0000968081A2149086000E02468206828B1B7
:1047D00020684068C0F380700028F6D00BE0616864
:1047E000786808300144606861F31D0060606868A3
:1047F000B84200D16C602146284600F04DF8071EF3
:1048000004D07868C0F380700028E8D0214628469C
:1048100000F042F8071E00D03C600D480068401CC4
:104820000B49086000BF5846FBF728FD50467BE760
:104830005B4552525D20000030782578206F7574FA
:10484000206F662072616E6765210A00D801002022
:10485000D40100202DE9F04105460E462F460FB148
:10486000582E02D80020BDE8F08131462846FBF7DB
:10487000DAFEBE6005F150043C607C60606820F0A8
:104880008040606000202060A6F15800616860F3FD
:104890001D0161600120E6E702465068884201D1AF
:1048A00000207047486820F0404301F10800184498
:1048B000F7E7000070B504460025002223460BB937
:1048C000012070BD09B90120FBE75A6809E0506872
:1048D000C0F3807020B1506820F04040083005449B
:1048E0001268002AF3D19868A84201D20120E8E7B3
:1048F0004D6098680860D1E90006801B8860044814
:104900000068C8600348006808610020D9E700001B
:10491000D0010020D401002000BFFEE710B586B012
:1049200018216846FBF7A1FE0A4800904FF4A060EA
:10493000039009A004901F20ADF8040069460948BF
:10494000FEF7EAFE044614B1204606B010BD002072
:10495000FBE700001949000849646C65436F726504
:1049600030303000500100200020704710B5002486
:104970000348044A111AFDF72BFF0446204610BDD8
:10498000300D00200050002070B51448FDF7D6FE11
:104990004FF4B47112480068FDF7E1FE1149086058
:1049A0000846006808B9104870BD002411E004EB07
:1049B00044000C49096801EBC0056C6000202870B8
:1049C00005F10806054908683146FDF765FE00BF98
:1049D000641C0F2CEBD30020E6E70000B0010020A0
:1049E000E4010020AC010020001D000270B5044667
:1049F00000BFD4E900010860D4E90010486000203D
:104A00006060206000BFA4F12805E988084A1268A8
:104A100002EBC100FDF75FFE40B1A9794FF0004005
:104A2000C8400449096881430248016070BD000024
:104A3000180100201C01002070B504460D460E49E7
:104A4000096801EBC500FDF746FE38B14FF00040A4
:104A5000E8400A49096808430849086006480068B0
:104A600000EBC5010868426862602060426814601B
:104A7000446000BF00BF70BD180100201C01002071
:104A800070B5002400254FF4807529460C48006855
:104A9000FDF765FE0B4908600846006800B970BD67
:104AA0000020044608E00749096801EBC4004060A3
:104AB000006000BF601C0446202CF4D300BFEEE76A
:104AC000E401002018010020014600200022074BCD
:104AD0001B6803EBC1035A6801E0401C5268034B9A
:104AE0001B6803EBC1039342F7D170471801002004
:104AF00000210748006848B105480068B0FA80F115
:104B00000448006800EBC100406870470020FCE7E3
:104B10001C010020180100202DE9F04704460E4634
:104B2000174698464FF00009CA4606F0030020B128
:104B3000012810D0032828D119E0B4F80CA0A089CE
:104B4000401CE188884202D10020A08102E0A089B7
:104B5000401CA08123E0A08918B9E088401EA081F4
:104B600002E0A089401EA081B4F80CA017E0B4F8C0
:104B70000EA0E089401CE188884202D10020E0813B
:104B800002E0E089401CE08109E000BF1BA0FBF7C8
:104B9000B1FB1CA0FBF7AEFB00BFBDE8F08700BF78
:104BA000218920680AFB010506F0040040B106F0E7
:104BB000010010B9286838601DE0386828601AE0E4
:104BC00006F0010058B92089284450F8049C4A4650
:104BD00029463846FBF7DAFCC8F800900BE0394666
:104BE0002846D8F80020FBF7D1FC20892844D8F8C3
:104BF000001040F8041C00BFCFE700005B45525294
:104C00005D200000696E76616C6964207175657560
:104C100065206F7065726174652074797065210A12
:104C20000000000070B54FF4DC7116480068FDF715
:104C300096FD154908600846006808B9134870BD1C
:104C40004FF4DC7110480068FBF70FFD1048FDF7CA
:104C500078FD002412E004EB440000EBC4000A4994
:104C6000096801EB80056C8105F11C06084908689C
:104C70003146FDF718FD00BF601C84B20A2CEADB48
:104C80000020DCE7E4010020B8010020010600025A
:104C9000BC0100202DE9FF4F83B081460E469846A7
:104CA000DDF840A00020019006F00105FBF7DEFAD8
:104CB000029009EB490000EBC9005449096801EB77
:104CC0008004A08810B95248019099E006F00100D4
:104CD00048B92089001FD8F80010814203D24C48FF
:104CE000153001908CE006F0010048B12089001FCA
:104CF000D8F80010814203D945480B3001907FE07D
:104D000004F1100030F8150090BBBAF1000F09D182
:104D100006F0010010B93E48133001E03C480C3069
:104D200001906DE03B48008818B13948001F0190A0
:104D300066E03948076804F1140101EBC5005246EA
:104D40004FF4005100F024FF0298FBF797FAFEF7AA
:104D5000ABF9FBF78BFA0290387900F0400090B184
:104D6000B88820F04000B8802948C01E019047E074
:104D7000FFE704F1100030F81500401E81B204F185
:104D8000100020F81510434631462046059AFFF7DB
:104D9000C3FE0DB9012200E0002204F1140101EB71
:104DA000C200FDF7B8FCC0B90DB9012100E0002137
:104DB00004F1140000EBC1004068A0F1280B4FF48F
:104DC0000051584600F00AFF0298FBF757FAFEF729
:104DD0006BF9002007B0BDE8F08F0DB9012100E0AC
:104DE000002104F1100030F81100401C81B20DB90F
:104DF000012200E0002204F1100020F8121000BF90
:104E00000298FBF73BFA0198E4E70000B8010020A4
:104E10000A06000248010020400100202DE9F0416F
:104E200005460E4614461F460A2D02D30A48BDE821
:104E3000F08106B114B90848401CF8E7206810B9A1
:104E40000548801CF3E72FB1FFF78EFD10B1024833
:104E50000A30ECE70020EAE70E0600022DE9F041F7
:104E600004460D4616461F460A2C02D30A48BDE8E2
:104E7000F08115B90848001DF9E7306810B90648F7
:104E8000401DF4E72FB1FFF76FFD10B10248401F3E
:104E9000EDE70020EBE700000E06000210200149BC
:104EA000086070474C01002010B5FBF7EAF910BD0F
:104EB0002DE9F84F074688469146B9F1000F02D117
:104EC0002248BDE8F88F474505DD00BF1F4EB61DDF
:104ED000DFF87CA02FE0FBF7C9F983461D48FDF7FA
:104EE00022FC40B15846FBF7C9F900BF174E761CAB
:104EF000DFF85CA01FE01748446800BFD4E9000158
:104F00000860D4E90010486000206060206000BFA5
:104F1000A4F108056F8001202880A5F8048005F120
:104F20000800FDF711FCE888C9F800005846FBF7B7
:104F3000A5F90020C5E700BF0020034632465146D0
:104F4000009005A0FDF760F83046BAE702070002BE
:104F5000F8C3B2A1C40100206F735F756E737065F2
:104F600063696669635F66696C65000070B51348C4
:104F7000FDF7EAFB4FF4A07111480068FDF7EFFB65
:104F8000104908600846006808B90F4870BD002441
:104F900010E00C48006800EB0415EC80002028802D
:104FA00005F10806054908683146FDF783FB00BF97
:104FB000601C84B2142CECDB0020E7E7C401002065
:104FC000E4010020CC0100200007000230B50446B7
:104FD000A068FFF765FA0546002D01DA002030BD14
:104FE000D4E9001001FB0500F9E72DE9F041044682
:104FF0000D46A8466068A8EB00062068B6FBF0F7EF
:105000002068B6FBF0F100FB116048B9A068FFF71B
:1050100084FAB84204D93946A068FFF769FA10B992
:105020000020BDE8F0813946A068FFF727FA01208B
:10503000F7E72DE9F04781460E4615461F4607F172
:105040001F00042101EBD00808EB0500401E691E7B
:1050500020EA01087019401E20EA010606FB07FA43
:1050600008F10C0000EB0A014846FFF771FA04460C
:1050700054B1266004F10C00A060A0684044606058
:105080003946A068FFF74CFA2046BDE8F087024693
:105090004DF6DE60108091700020D070101D7047BA
:1050A000014601F1100070472DE9F04780460E4699
:1050B00000274046FFF7F4FF0546B9460024802E3E
:1050C00002D90020BDE8F087002439E005EB041088
:1050D0000068B04233D3FBF7C9F8824605EB0410F1
:1050E000806805EB04114968884204D35046FBF7F9
:1050F000C5F80020E6E705EB0410C06820B950466B
:10510000FBF7BCF80020DDE705EB0419D9F80C002B
:10511000FFF75CFF07466FB105EB041001683846E6
:10512000FFF7B5FF074605EB04108068401C05EB50
:10513000041188605046FBF7A1F83846C2E7641CAA
:10514000042CC3D30020BDE72DE9F05F81460F4654
:105150004846FFF7A5FF05464FF0000A00243E1F12
:1051600030884DF6DE61884202D00020BDE8F09F15
:1051700000241FE0B07805EB04110968884218D8B4
:10518000FBF774F8834605EB04183146D8F80C0099
:10519000FFF72BFF012807D1824605EB041080683A
:1051A000401E05EB041188605846FBF767F850462F
:1051B000DCE7641C042CDDD30020D7E72DE9F047A1
:1051C00081464846FFF76CFF05460024002700266D
:1051D000A04600BF20E0102000FA04F64001B0FB1A
:1051E000F6F805EB0410066005EB0410C0F8048027
:1051F000002005EB0411886005EB0410C06808B1BD
:105200007F1C08E043460422311D4846FFF711FF8A
:1052100005EB0411C860641C042CDCD317B9012011
:10522000BDE8F0870020FBE72DE9F84340211F4847
:10523000FBF71BFA00201E4908604FF4E078414656
:105240001C480068FDF78BFA044614B91A48BDE8FB
:10525000F88341462046FBF708FA184804601848CE
:1052600004600020208125461C34012605E02681AB
:105270002C602546701C86B21C34102EF7DB0820EB
:105280000023104A102100901846FDF7D5FD07466F
:1052900017B10948001DDAE700F03CF9074617B1DD
:1052A0000548401DD3E70020D1E700003805002065
:1052B0002C010020E401002007030002240100204B
:1052C00028010020200100202DE9F84F014600268A
:1052D00000204FF0FF3A471E00974FF0100CE046B9
:1052E00081460F69CF600F894FEAE77B07EB1B7B95
:1052F0004FEA2B1BA7EB0B1B1FFA8BF4714F57F8D0
:10530000247007F06047B7F1C04F7CD16D4F57F85C
:10531000247047F00047DFF8ACB14BF824705F46CB
:1053200057F8247027F07F43002532E0654F57F887
:10533000257027F07F424AB1A54207D0614F57F848
:10534000257007F04047B7F1404F00D01FE09A4268
:105350000CD3B2FBF3F703FB17273FB9B2FBF3F70C
:10536000574513D2B2FBF3FAAC460FE09A420DD286
:10537000B3FBF2F702FB173747B9B3FBF2FB009F11
:10538000BB4503D2B3FBF2F70097A84600BF6F1CE2
:10539000BDB2102DCADBBCF1100F24D04A4F3868C3
:1053A00010E0C768B9440789CCEBCC0BDFF81CE1EF
:1053B000DEF800E00EEB8B0BBBF808B05F4500D1C8
:1053C00002E000680028ECD100BF80B30769A7EBBA
:1053D0000907D1F810B0B7FBFBFE0BFB1E77ABEB58
:1053E0000707CF6047E0B8F1100F44D00027CF6027
:1053F000C8EBC807DFF8D4B0DBF800B00BEB8706CA
:1054000030684DE0FFE72F4F57F8247007F06047F2
:10541000B7F1804F2FD12B4F57F8247047F000473A
:10542000DFF8A0B04BF82470274F38681AE022E06C
:10543000D0F810B0D1F810E0F34512D107894FEA47
:10544000E77B07EB1B7B4FEA2B1BA7EB0B1BDFF864
:1054500074E05EF82BB00BF0404BBBF1404F00D135
:1054600002E000680028E3D100BF20B10027CF6030
:105470000646006814E0144F38680DE0C768D1F89C
:105480000CB05F4500D909E0CF68D0F80CB0A7EBAD
:105490000B07CF60064600680028EFD100BF00BFB1
:1054A000086028B1C768D1F80CB0A7EB0B07C7603C
:1054B00016B9054F396000E0316002270F71BDE871
:1054C000F88F0000380500202C0100202401002066
:1054D0000EB50820009000BF4FF0FF336A4601A9C7
:1054E0000B480068FDF78FFD0446002CF4D10098AE
:1054F0000828F1D101980028EED0FEF757FC0546A8
:10550000DDE901108847FEF751FC401BE4E700008D
:105510002001002010B586B018216846FBF7A5F8D9
:10552000084800904FF48050039007A0049000209A
:10553000ADF8040069460748FEF7EEF80446204639
:1055400006B010BDD15400085377745F5461736B7B
:1055500000000000540100201CB51D48046832E022
:105560001B4920680860A0690090606901900023D1
:105570000822694617480068FDF77AFD6079A0B9EE
:10558000204600F029F820894FF6E071884203DABE
:1055900020891030208114E02089C11700EB11719F
:1055A0000911A0EB011121810BE06079012803D1E1
:1055B0002046FFF789FE04E06079022801D101202E
:1055C00020710348046814B1E0680028C8D01CBDED
:1055D0002C0100202001002010B509490968016054
:1055E000074908600021017100220189CB1701EBF6
:1055F00013731B11A1EB0313024C44F8232010BDBD
:10560000280100203805002010B50748006848B17F
:1056100005480068C068401E03490968C86008B9A9
:10562000FFF79AFF002010BD2C010020F0B50146C5
:10563000002200201A4B1B6803B9F0BD184B1868F4
:1056400001E0024600688842FBD103682BB1036881
:10565000DB68C46823440468E3601AB9104C03682B
:10566000236001E0036813600023036001230371DA
:105670000B89DD1703EB15752D11A3EB0515094EED
:1056800056F8255025F000451C46DE1703EB16762C
:105690003611A3EB0616034F47F8265000BFCCE7A0
:1056A0002C010020380500202DE9F04704468846EB
:1056B00008F01F074FEA581907B101E0A9F10109E5
:1056C000A06B00F0784040EA0900A063254880887C
:1056D000074407F01F07A06B67F3DF60A063214852
:1056E000006800EBC7067068B04205D104F13001D4
:1056F0003046FDF72CF833E07068A0F1300500BFAC
:10570000A86B20F07840A16B21F0784188420CD83A
:10571000A06B20F07840A96B21F07841401AA16B72
:1057200001F078410843A0630CE0A86B20F07840BA
:10573000A16B21F07841401AA96B01F07841084330
:10574000A86306E0686BA0F1300505F13000B042B7
:10575000D6D100BF04F1300105F13000FCF7F7FFAE
:10576000BDE8F0877001002070B50546C5EBC500A7
:1057700000EB40000649096801EB80046169206A7A
:1057800088470020034908802069FEF711F970BDA1
:105790003C0100204801002072B600BFFEE7000077
:1057A00070B540480068401C542100FB01F63146AA
:1057B0003D480068FCF7D3FF3C4908600846006894
:1057C00008B93B4870BD314638480068FAF74DFFCC
:1057D0003848FCF7B0FF3848FCF7ADFF3748FCF716
:1057E000AAFF002420E00120C4EBC40101EB410129
:1057F0002E4A126802EB81018880C4EBC40000EBE2
:1058000040002A49096801EB80000461C4EBC40030
:1058100000EB4000254A126802EB800000F12801ED
:105820002548FCF794FF641C0F2CDCD92448002188
:10583000016041601B480068C0EBC00000EB400005
:105840001A49096801EB80001D4908600846006894
:105850000461112009688880202019490968C880DE
:10586000FFF70EF94FF4807631460F480068FCF7D9
:1058700076FF05460DB90E48A4E731462846FAF7EB
:10588000F4FE1048056000200E498880002404E0E2
:105890002846FCF750FF641C0835202CF8D3002064
:1058A00090E700004C010020E40100203C010020B2
:1058B0000002000358010020600100206801002060
:1058C000400100207001002010B54FF4AB71064874
:1058D000FAF7A9FE0A200449487004480449086000
:1058E00000200449086010BD780500200D5A00080A
:1058F0007C0100208001002070B504460D4620790F
:1059000000F0040090B104F12800FFF76FF8A088C0
:1059100020F00400A080E580A08840F00400A08072
:10592000E18804F12800FFF787F800E0E58070BD0A
:105930002DE9F041002734498988481CC11700EB44
:10594000D1614911A0EB41112F4A918010460068A6
:105950001146898800EBC1056868A84201D1BDE8FD
:10596000F0816868A0F1300443E0A688A06B20F0C5
:10597000784018B1A06B401EA0633EE004F13000F7
:10598000FCF79FFE06F0080058B1A08820F0080040
:10599000A08004F12800FCF794FE0020A061E061E3
:1059A00017E006F4806020B1A08820F48060A08019
:1059B0000FE006F4005040B104F12800FCF781FE2E
:1059C000A08820F40050A08003E0A08820F02000F0
:1059D000A08006F0020048B9A08840F00400A08032
:1059E000E18804F12800FFF727F801276868A0F193
:1059F000300404F13000A842B7D100BF0FB1FDF769
:105A000053FB00BFABE700007001002010B53B481E
:105A10000068C0680068B0F1CC3F0DD000BF38A06E
:105A2000FAF768FC35480068026934480068416A42
:105A300035A0FAF75FFC00BF3048406800682F4986
:105A40004968C96888420BD92C484068C0682B490E
:105A500049688968084429494968096888421BD20D
:105A600000BF27A0FAF746FC244840680269234893
:105A70004068416A2EA0FAF73DFC00BF00BF20A09D
:105A8000FAF738FC1D484068C2681C484068016845
:105A900030A0FAF72FFC00BF18484068008A81B296
:105AA00039480278801C20F81210144A5268516A52
:105AB000821E1378163202EB43102022FAF766FD9D
:105AC000002131480278163000EB4210C1772E4891
:105AD0000078401CC0B22C4908700A2806D100206A
